:020000040800F2
:100000000050002035220008251D00082D1D000885
:10001000351D00083D1D0008451D000800000000BA
:100020000000000000000000000000004D1D00085E
:10003000591D000800000000651D0008711D000822
:100040007D2200087D2200087D2200087D22000814
:100050007D2200087D2200087D2200087D22000804
:100060007D2200087D2200087D2200087D220008F4
:100070007D2200087D2200087D2200087D220008E4
:100080007D2200087D2200087D2200087D220008D4
:100090007D2200087D2200087D2200087D220008C4
:1000A0007D2200087D2200087D2200087D220008B4
:1000B0007D1D00087D2200087D2200087D220008A9
:1000C0007D2200087D2200087D2200087D22000894
:1000D0007D2200087D220008911D00087D22000875
:1000E0007D2200087D2200087D220008000000001B
:1000F0000000000000000000000000000000000000
:0C01000000000000000000005FF808F1A3
:10010C0010B5054C237833B9044B13B10448AFF345
:10011C0000800123237010BD60000020000000004F
:10012C00086F000808B5034B1BB103490348AFF334
:10013C00008008BD0000000064000020086F00086B
:10014C00034613F8012B002AFBD1181A013870470B
:10015C0080F0004002E000BF81F0004142001FBF70
:10016C005FEA410392EA030F7FEA226C7FEA236C79
:10017C006AD04FEA1262D2EB1363C1BFD21841406E
:10018C0048404140B8BF5B42192B88BF704710F004
:10019C00004F40F4000020F07F4018BF404211F0A7
:1001AC00004F41F4000121F07F4118BF494292EA0F
:1001BC00030F3FD0A2F1010241FA03FC10EB0C003B
:1001CC00C3F1200301FA03F100F0004302D54942C8
:1001DC0060EB4000B0F5000F13D3B0F1807F06D375
:1001EC0040084FEA310102F10102FE2A51D2B1F16D
:1001FC00004F40EBC25008BF20F0010040EA030062
:10020C007047490040EB0000013A28BFB0F5000FE1
:10021C00EDD2B0FA80FCACF1080CB2EB0C0200FA97
:10022C000CF0AABF00EBC25052421843BCBFD040E6
:10023C001843704792F0000F81F4000106BF80F460
:10024C0000000132013BB5E74FEA41037FEA226C23
:10025C0018BF7FEA236C21D092EA030F04D092F0EE
:10026C00000F08BF0846704790EA010F1CBF002022
:10027C00704712F07F4F04D1400028BF40F000407F
:10028C00704712F100723CBF00F50000704700F09F
:10029C00004343F0FE4040F4000070477FEA2262C6
:1002AC0016BF08467FEA23630146420206BF5FEA97
:1002BC00412390EA010F40F4800070474FF0000397
:1002CC0004E000BF10F0004348BF40425FEA000C5E
:1002DC0008BF704743F0964301464FF000001CE006
:1002EC0050EA010208BF70474FF000030AE000BF5C
:1002FC0050EA010208BF704711F0004302D540429A
:10030C0061EB41015FEA010C02BF8446014600200B
:10031C0043F0B64308BFA3F18053A3F50003BCFA26
:10032C008CF2083AA3EBC25310DB01FA02FC6344D3
:10033C0000FA02FCC2F12002BCF1004F20FA02F2DA
:10034C0043EB020008BF20F00100704702F12002CD
:10035C0001FA02FCC2F1200250EA4C0021FA02F22E
:10036C0043EB020008BF20EADC7070474FF0FF0C33
:10037C001CEAD0521EBF1CEAD15392EA0C0F93EA2E
:10038C000C0F6FD01A4480EA010C400218BF5FEAD0
:10039C0041211ED04FF0006343EA501043EA511143
:1003AC00A0FB01310CF00040B1F5000F3EBF49003D
:1003BC0041EAD3715B0040EA010062F17F02FD2A41
:1003CC001DD8B3F1004F40EBC25008BF20F0010024
:1003DC00704790F0000F0CF0004C08BF49024CEA3B
:1003EC00502040EA51207F3AC2BFD2F1FF0340EACD
:1003FC00C250704740F400004FF00003013A5DDC3E
:10040C0012F1190FDCBF00F000407047C2F100027E
:10041C00410021FA02F1C2F1200200FA02FC5FEA6B
:10042C00310040F1000053EA4C0308BF20EADC70B5
:10043C00704792F0000F00F0004C02BF400010F427
:10044C00000F013AF9D040EA0C0093F0000F01F0D4
:10045C00004C02BF490011F4000F013BF9D041EAF6
:10046C000C018FE70CEAD15392EA0C0F18BF93EAF8
:10047C000C0F0AD030F0004C18BF31F0004CD8D122
:10048C0080EA010000F00040704790F0000F17BFA9
:10049C0090F0004F084691F0000F91F0004F14D0EF
:1004AC0092EA0C0F01D142020FD193EA0C0F03D147
:1004BC004B0218BF084608D180EA010000F000404A
:1004CC0040F0FE4040F40000704740F0FE4040F425
:1004DC00400070474FF0FF0C1CEAD0521EBF1CEAC4
:1004EC00D15392EA0C0F93EA0C0F69D0A2EB0302E2
:1004FC0080EA010C49024FEA402037D04FF080537C
:10050C0043EA111143EA10130CF000408B4238BF40
:10051C005B0042F17D024FF4000C8B4224BF5B1A4E
:10052C0040EA0C00B3EB510F24BFA3EB510340EA9C
:10053C005C00B3EB910F24BFA3EB910340EA9C004A
:10054C00B3EBD10F24BFA3EBD10340EADC001B01BA
:10055C0018BF5FEA1C1CE0D1FD2A3FF650AF8B425E
:10056C0040EBC25008BF20F0010070470CF0004C6B
:10057C004CEA50207F32C2BFD2F1FF0340EAC25096
:10058C00704740F400004FF00003013A37E792F057
:10059C00000F00F0004C02BF400010F4000F013AB5
:1005AC00F9D040EA0C0093F0000F01F0004C02BFB0
:1005BC00490011F4000F013BF9D041EA0C0195E719
:1005CC000CEAD15392EA0C0F08D142027FF47DAFB2
:1005DC0093EA0C0F7FF470AF084676E793EA0C0FA2
:1005EC0004D14B023FF44CAF08466EE730F0004CA0
:1005FC0018BF31F0004CCAD130F000427FF45CAF30
:10060C0031F000437FF43CAF5FE700BF42000ED2F5
:10061C00B2F1FE4F0BD34FF09E03B3EB126209D431
:10062C004FEA002343F0004323FA02F070474FF0E7
:10063C000000704712F1610F01D1420202D14FF05C
:10064C00FF3070474FF00000704700BF80B586B098
:10065C0002AF0346FB71FB793B7300237B730023D2
:10066C00BB7307F10C02FF23009303237021144882
:10067C0002F06AFF0A2001F05FFE07F10802FF2377
:10068C000093032371210E4803F05CF8FB7963F0AF
:10069C004F03DBB23B737B7A7B73BB7ABB730A2051
:1006AC0001F04AFE07F10C02FF2300930323702193
:1006BC00034802F049FF00BF1037BD4680BD00BFA4
:1006CC00E400002080B584B002AF3A1DFF230093F4
:1006DC00012371211B4803F035F83B7903F0180313
:1006EC00182B0DD01B20FFF7B1FF1C20FFF7AEFF1E
:1006FC001E20FFF7ABFF00220221134802F0C7FDBA
:10070C003B7903F01803182B04D1012202210E4867
:10071C0002F0BDFD0D4A3B461268114619800233AA
:10072C00120C1A703A46FF230093032370210548DC
:10073C0002F00AFF502001F0FFFD00BF0837BD4654
:10074C0080BD00BFE400002000080140206F0008BD
:10075C0080B588B002AF7860FFF7B4FF00237B61EF
:10076C0000233B6107F10802FF230093072371214B
:10077C00244802F0E7FF7B7A1A463B6913431B02BD
:10078C003B61BB7A1A463B6913431B023B61FB7A04
:10079C001A463B6913433B613B691B093B613B694F
:1007AC004FF47A7202FB03F31B0D3B613B699AB267
:1007BC007B681A80FB7A1A467B6913431B027B61A8
:1007CC003B7B1A467B6913431B027B617B7B1A467E
:1007DC007B6913437B617B69C3F313037B617B6987
:1007EC004FF4FA6202FB03F31B0DA3F5FA737B6162
:1007FC007B6802337A6992B21A8000BF1837BD4603
:10080C0080BD00BFE400002090B583B000AF7860DD
:10081C0039602E4B5B882E4AA2FB0323DB089BB26C
:10082C001846FFF74FFD0446284B5A88284BA3FB6C
:10083C000213D9080B469B000B445B00D31A9BB2E6
:10084C001846FFF73FFD034622491846FFF742FEC4
:10085C00034619462046FFF781FC03461846FFF76E
:10086C00D5FE03469AB27B681A80184B5B88184AEF
:10087C00A2FB0323DB089BB21846FFF723FD0446BB
:10088C00124B5A88124BA3FB0213D9080B469B0040
:10089C000B445B00D31A9BB21846FFF713FD0346BB
:1008AC000C491846FFF716FE034619462046FFF77B
:1008BC0055FC03461846FFF7A9FE03469AB23B685F
:1008CC001A8000BF0C37BD4690BD00BF7C000020D5
:1008DC00CDCCCCCC0000204180B582B002AF2B49EE
:1008EC002B48FFF791FF2B4B1B68002B02D0012BE1
:1008FC0008D045E00121012001F086F8254B0122AA
:10090C001A603DE0244B5B78012B38D12348FFF76C
:10091C001FFF224B5B88224AA2FB0323DB089BB2FE
:10092C0018461E4B5A881E4BA3FB0213D9080B46C4
:10093C009B000B445B00D31A9BB21A46DF23009337
:10094C00134602461749184805F028FE134B1B881E
:10095C00134AA2FB0323DB089BB218460F4B1A88E1
:10096C000F4BA3FB0213D9080B469B000B445B00F7
:10097C00D31A9BB202460D490D4805F00FFE00BF7D
:10098C0000F026F900BFBD4680BD00BFAE000020C0
:10099C00AC000020A8000020740200207C00002085
:1009AC00CDCCCCCC246F000880000020386F000820
:1009BC009400002080B500AF12491348FFF724FFC4
:1009CC00114B1B881D2B11D900F00AFC0E4B1B88F8
:1009DC00202B14D900224FF480610C4802F057FCF4
:1009EC00002208210A4802F052FC08E0064B1B8842
:1009FC00132B02D800F006FC01E000F015FC00BF40
:100A0C0080BD00BFAE000020AC00002000080140FB
:100A1C00000C014080B586B002AF0346FB71FB7938
:100A2C0023F00F03FB73FB791B01BB73FB7B43F0C0
:100A3C000C03DBB23B72FB7B43F00803DBB27B7233
:100A4C00BB7B43F00C03DBB2BB72BB7B43F00803F4
:100A5C00DBB2FB7207F108026423009304234221EA
:100A6C00034802F071FD00BF1037BD4680BD00BFCA
:100A7C00E400002080B586B002AF0346FB71FB7921
:100A8C0023F00F03FB73FB791B01BB73FB7B43F060
:100A9C000D03DBB23B72FB7B43F00903DBB27B72D1
:100AAC00BB7B43F00D03DBB2BB72BB7B43F0090392
:100ABC00DBB2FB7207F1080264230093042342218A
:100ACC00034802F041FD00BF1037BD4680BD00BF9A
:100ADC00E400002080B500AF3320FFF79BFF3220ED
:100AEC00FFF798FF322001F027FC2820FFF792FF38
:100AFC00322001F021FC0120FFF78CFF322001F0A5
:100B0C001BFC0620FFF786FF322001F015FC0C20A1
:100B1C00FFF780FF322001F00FFC0220FFF77AFF75
:100B2C00322001F009FC8020FFF774FF00BF80BD6C
:100B3C0080B582B000AF786006E07B685A1C7A60A2
:100B4C001B781846FFF796FF7B681B78002BF4D1B7
:100B5C0000BF00BF0837BD4680BD80B500AF012087
:100B6C00FFF758FF00BF80BD80B584B000AF786040
:100B7C0039607B68002B04D13B68DBB2803BFB7394
:100B8C0003E03B68DBB2403BFB73FB7B1846FFF793
:100B9C0041FF00BF1037BD4680BD000080B500AFDF
:100BAC00FFF7DBFFFFF796FF00210020FFF7DCFFCC
:100BBC000548FFF7BDFF00210120FFF7D5FF0348D3
:100BCC00FFF7B6FF00BF80BD4C6F0008606F0008D8
:100BDC0080B500AF00210120FFF7C6FF0548FFF7E5
:100BEC00A7FF00210020FFF7BFFF0348FFF7A0FF7E
:100BFC0000BF80BD940000208000002080B584B030
:100C0C0000AF0346FB71FB79002B1AD102210F4870
:100C1C0002F026FB0346FB73FB790D4AD35CFA7B8F
:100C2C009A4208D0322001F087FB0221074802F0DB
:100C3C0017FB0346FB73FB790549FA7BCA54FB7B14
:100C4C0000E0012318461037BD4680BD0008014066
:100C5C000000002080B582B000AF78607B681B6814
:100C6C00144A934222D14FF4FA73012212491348C9
:100C7C0004F046FE124B1B781A460F4B1978114B99
:100C8C0099540F4B1B780133DAB20D4B1A700C4B85
:100C9C001B78322B02D10A4B00221A700A4B01220C
:100CAC001A7001220449054804F0B5FE00BF08374C
:100CBC00BD4680BD00440040980200208001002009
:100CCC00CE0200209C020020CF02002080B500AF95
:100CDC0001F0D0FA00F04AF800F084F900F0DEF8E8
:100CEC0000F056F900F008F900F09AF8174804F0F3
:100CFC0015FA01221649174804F08DFE164801F02A
:100D0C0017FC01F07FF9FFF749FF00F0DDFA00F066
:100D1C0019FA03214FF4967000F076FE642200213C
:100D2C000E4800F09BFB642200210D4800F096FB5E
:100D3C004FF4FA7200210B4800F090FB0A220021BC
:100D4C00094800F08BFB00F06FFBFCE7380100203A
:100D5C00B000002080010020B4000020C109000870
:100D6C0005220008D5200008A511000880B594B014
:100D7C0000AF07F1280328220021184605F02EFCAD
:100D8C0007F1140300221A605A609A60DA601A6143
:100D9C003B1D00221A605A609A60DA600123BB6224
:100DAC004FF48033FB6200233B630123BB630223BC
:100DBC007B644FF48033BB644FF4E013FB6407F1A6
:100DCC002803184603F0DEFB0346002B01D000F08D
:100DDC00B3F90F237B610223BB610023FB614FF44A
:100DEC0080633B6200237B6207F1140302211846E7
:100DFC0003F04AFE0346002B01D000F09DF90223BC
:100E0C007B600023FB603B1D184603F0CBFF0346C1
:100E1C00002B01D000F090F900BF5037BD4680BDCB
:100E2C0080B584B000AF3B1D00221A605A609A60F6
:100E3C00184B194A1A60174B00229A60154B012265
:100E4C001A73144B00221A75124B4FF46022DA619C
:100E5C00104B00225A600F4B01221A610D4801F011
:100E6C008FFA0346002B01D000F066F900237B605B
:100E7C000123BB600023FB603B1D1946054801F0B4
:100E8C0017FD0346002B01D000F056F900BF1037B8
:100E9C00BD4680BDB40000200024014080B500AFE9
:100EAC00124B134A1A60114B124A5A600F4B002214
:100EBC009A600E4B0022DA600C4B4FF480421A61A0
:100ECC000A4B00225A61094B00229A61074B0022FF
:100EDC00DA61064B00221A62044802F0F1F903466B
:100EEC00002B01D000F028F900BF80BDE4000020E9
:100EFC0000540040A086010080B586B000AF07F119
:100F0C00080300221A605A609A60DA603B4600229D
:100F1C001A605A601D4B4FF080421A601B4B41F611
:100F2C001F425A60194B00229A60184B6322DA60F8
:100F3C00164B00221A61154B00229A61134804F0DB
:100F4C009DF80346002B01D000F0F6F84FF48053C7
:100F5C00BB6007F1080319460C4804F021FA03465C
:100F6C00002B01D000F0E8F800233B6000237B60ED
:100F7C003B461946054804F003FC0346002B01D000
:100F8C0000F0DAF800BF1837BD4680BD38010020EC
:100F9C0080B500AF114B124A1A60104B4FF4165229
:100FAC005A600E4B00229A600C4B0022DA600B4BFD
:100FBC0000221A61094B0C225A61084B00229A61DB
:100FCC00064B0022DA61054804F04AFC0346002B6C
:100FDC0001D000F0B1F800BF80BD00BF800100203F
:100FEC000044004080B588B000AF07F11003002228
:100FFC001A605A609A60DA60454B9B69444A43F028
:10100C0020039361424B9B6903F02003FB60FB6858
:10101C003F4B9B693E4A43F0040393613C4B9B69F5
:10102C0003F00403BB60BB68394B9B69384A43F03F
:10103C0008039361364B9B6903F008037B607B6864
:10104C00334B9B69324A43F010039361304B9B69DD
:10105C0003F010033B603B68002220212D4802F076
:10106C0016F9002280212C4802F011F901224FF4CC
:10107C008061284802F00BF900224821274802F031
:10108C0006F912233B6100237B610123BB6107F14D
:10109C00100319461F4801F05FFF4FF484633B6156
:1010AC0001237B610123BB610223FB6107F1100368
:1010BC001946184801F050FF21233B6100237B6146
:1010CC000123BB6107F110031946144801F044FFDA
:1010DC0080233B6101237B610123BB610223FB6104
:1010EC0007F1100319460C4801F036FF48233B6109
:1010FC0001237B610123BB610223FB6107F1100318
:10110C001946064801F028FF00BF2037BD4680BDB8
:10111C00001002400008014000100140000C01408A
:10112C0080B582B000AF786000F08EFC00F056F90C
:10113C0000BF0837BD4680BD80B400AF72B600BF9B
:10114C0000BFFDE780B500AF002000F003F800BF42
:10115C0080BD000080B582B000AF0346FB71FB7907
:10116C00022B0FD0022B10DC002B02D0012B06D04F
:10117C000BE0FFF713FD074B01221A7006E0FFF797
:10118C00ABFB03E000F0BEF800E000BF00BF083787
:10119C00BD4680BDC801002080B500AF0F4B1B7849
:1011AC00012B02D0022B0AD016E00020FFF726FDFF
:1011BC000346002B0DD10220FFF7CCFF09E00020E5
:1011CC00FFF71CFD0346012B05D10120FFF7C2FFE1
:1011DC0001E000BF00E000BF00BF80BDC8010020DF
:1011EC0080B500AF01228021044802F050F80122A2
:1011FC004021034802F04BF800BF80BD00100140B5
:10120C00000C014080B500AF00228021044802F0A0
:10121C003EF801224021034802F039F800BF80BD9E
:10122C0000100140000C014080B500AF012280216C
:10123C00044802F02CF800224021034802F027F861
:10124C0000BF80BD00100140000C014080B584B08F
:10125C0000AF78604FF0FF31184801F017FA1748CB
:10126C0001F01AFB0346164A1360154B1B684FF628
:10127C00FF72934202D1124B00221A60104B1B6872
:10128C00642203FB02F20F4BA3FB0213D21A520887
:10129C001344DB0AFB60FB689AB27B681A80FB681C
:1012AC009AB27B680233114689000A44520092B20A
:1012BC001A8000BF1037BD4680BD00BFB4000020AF
:1012CC00CC0100200101100080B500AF0248FFF7EF
:1012DC00BDFF00BF80BD00BFD001002080B483B033
:1012EC0000AF78603960064B1A887B681A80044B13
:1012FC005A883B681A8000BF0C37BD4680BC7047CB
:10130C00D001002090B593B000AFFFF726FCFFF79B
:10131C00DBFF07F1440207F1460311461846FFF7BD
:10132C00DDFFB7F84630132B0BD807F12403264A00
:10133C001C4613460FCB07C4238002341B0C2370AE
:10134C0017E0B7F84630322B0BD807F124031F4AAD
:10135C001C4613460FCB07C4238002341B0C23708E
:10136C0007E007F124031A4A1C4613460FCB07C4A7
:10137C002380FFF7F2FB00210020FFF7F5FB07F1BC
:10138C0024031846FFF7D4FBB7F846301946B7F8D4
:10139C004430104AA2FB0323DB089BB2381D0A46DB
:1013AC000D4905F0FBF800210120FFF7DDFB3B1D8B
:1013BC001846FFF7BDFB4FF4967000F0BDFF00BF61
:1013CC004C37BD4690BD00BF6C6F00087C6F0008A9
:1013DC008C6F0008CDCCCCCC9C6F000880B400AFD7
:1013EC00104B1B68002B18D00E4B9B68002B0CD09D
:1013FC000C4B9B680A2B05D90A4B9B680A3B094A84
:10140C00936002E0074B00229A60064B9B68002B0E
:10141C0004D1044B01221A7400E000BFBD4680BC0D
:10142C00704700BFD401002080B500AF0A4B1B7C75
:10143C00002B0FD0084B1B689847074BDB68002B21
:10144C0002D000F0AFF906E0034B1B79184600F010
:10145C000BF900E000BF80BDD4010020B0B489B00E
:10146C0000AFF860B9607A607E4BD3F88C30002BFB
:10147C0001D00023F1E07B4B93F890307B76002376
:10148C00FB610023FB76E3E0FA7E764913469B0072
:10149C0013449B000B4408331B68FA691344FB612B
:1014AC00FA69BB689A420AD8FA7E6E4913469B00C9
:1014BC0013449B000B441B68002B40F0C680072391
:1014CC00BB7617E0BB7E5A1EB97E66480B469B0066
:1014DC000B449B001844634913469B0013449B0028
:1014EC000B4404461D460FCD0FC42B682360BB7EF6
:1014FC00013BBB76BA7EFB7E9A42E3D8FA7E594911
:10150C0013469B0013449B000B44FA681A60FA7E46
:10151C00544913469B0013449B000B4404337A7EBE
:10152C001A70FA7E4F4913469B0013449B000B44E0
:10153C000C337A681A60FA7E4A4913469B001344AE
:10154C009B000B44103300221A70FA69BB689A4254
:10155C0050D9FA69BB68D31A7B61FB7E5A1C41498E
:10156C0013469B0013449B000B44083319687B699A
:10157C00FA7EC91A3B4813469B0013449B00034454
:10158C0008331960FA7E374913469B0013449B00BD
:10159C000B4408331B68002B09D1FA7E31491346E2
:1015AC009B0013449B000B44103301221A70FB7EEA
:1015BC005A1C79692B4813469B0013449B00034427
:1015CC0008331960FB7E5A1C264913469B001344B2
:1015DC009B000B4408331B68002B2CD1FB7E5A1C40
:1015EC00204913469B0013449B000B4410330122EB
:1015FC001A7020E0FA7EB968FB69C91A19481346BB
:10160C009B0013449B00034408331960FA7E154970
:10161C0013469B0013449B000B4408331B68002BA0
:10162C0009D1FA7E0F4913469B0013449B000B44CF
:10163C00103301221A70FA7E0A4913469B00134498
:10164C009B000B4404331B7807E0FB7E0133FB76D5
:10165C00FB7E072B7FF618AF002318462437BD46B8
:10166C00B0BC7047D4010020B0B485B000AF0346C5
:10167C00FB710023FB7388E0FA7B494913469B00FE
:10168C0013449B000B441B68002B01D1002381E009
:10169C00FA7B434913469B0013449B000B440433D1
:1016AC001B78FA799A426DD1FA7B3D4913469B001F
:1016BC0013449B000B4404331B787B73FB7B5A1C39
:1016CC00374913469B0013449B000B441B68002BAB
:1016DC001DD0FB7B5A1C324913469B0013449B00C4
:1016EC000B4408331968FA7B2D4813469B001344AE
:1016FC009B00034408331B68FA7B013219442848C9
:10170C0013469B0013449B00034408331960FB7B76
:10171C00BB7317E0BB7B5A1CB97B21480B469B0063
:10172C000B449B0018441E4913469B0013449B001A
:10173C000B4404461D460FCD0FC42B682360BB7BA6
:10174C000133BB73BB7B062BE4D9154B0022C3F8CA
:10175C008C20134A7B7B82F89030114B0022C3F80B
:10176C0094200F4B0022C3F898200D4B002283F8D5
:10177C009C200B4BD3F88C30002B0CBF0123002387
:10178C00DBB207E0FB7B0133FB73FB7B072B7FF6A4
:10179C0073AF002318461437BD46B0BC704700BF6A
:1017AC00D4010020B0B489B000AF964B1B68002B5D
:1017BC0001D1002320E1934B3C461D460FCD0FC4B5
:1017CC002B6823600023FB610023FB760FE1FB7E7B
:1017DC00072B0AD0FB7E5A1C8A4913469B001344E4
:1017EC009B000B441B68002B4AD1FA7E3968854854
:1017FC0013469B0013449B0003441960FA7E38790E
:10180C00804913469B0013449B000B44043302464F
:10181C001A70FA7EF9687B4813469B0013449B00B0
:10182C0003440C331960FA7E764913469B0013442B
:10183C009B000B44103300221A70F968FA7EFB6986
:10184C00C91A704813469B0013449B000344083389
:10185C001960FA7E6B4913469B0013449B000B44A2
:10186C0008331B68002B09D1FA7E664913469B008E
:10187C0013449B000B44103301221A700123BBE06C
:10188C00FB7E5A1C5F4913469B0013449B000B4480
:10189C0008331B68FA691344FB61FB68FA699A42C6
:1018AC0040F28D80FA7E3968564813469B001344EB
:1018BC009B0003441960FA7E3879524913469B0009
:1018CC0013449B000B44043302461A70FA7EF968E9
:1018DC004C4813469B0013449B0003440C33196083
:1018EC00FA7E484913469B0013449B000B4410336B
:1018FC0000221A70FB68FA69D31A7B61FB7E5A1CB2
:10190C00404913469B0013449B000B440833196851
:10191C007B69FA7EC91A3B4813469B0013449B0013
:10192C00034408331960FA7E364913469B0013446E
:10193C009B000B4408331B68002B09D1FA7E3149FC
:10194C0013469B0013449B000B44103301221A7066
:10195C00FB7E5A1C2B4913469B0013449B000B44E3
:10196C0008331968FA7E274813469B0013449B00E2
:10197C00034408331B68FA7E0132C91A2148134606
:10198C009B0013449B00034408331960FB7E5A1CD4
:10199C001C4913469B0013449B000B4408331B68E3
:1019AC00002B0AD1FB7E5A1C164913469B0013448C
:1019BC009B000B44103301221A7001231CE0FB7EA8
:1019CC005A1CF97E0F480B469B000B449B00184495
:1019DC000C4913469B0013449B000B4404461D46C4
:1019EC000FCD0FC42B682360FB7E0133FB76FB7E8F
:1019FC00072B7FF6ECAE002318462437BD46B0BC4F
:101A0C00704700BFD401002080B483B000AF786071
:101A1C0039603B68002B0DDB3B68092B0ADC7B68CB
:101A2C0019B2074A3B6822F81310064A3B68134464
:101A3C0000221A7000BF0C37BD4680BC704700BF37
:101A4C00800200207402002080B483B000AF002319
:101A5C007B601FE0144A7B6832F91330002B16DDD3
:101A6C00114A7B6832F913309BB2013B9BB219B21D
:101A7C000D4A7B6822F813100B4A7B6832F913303D
:101A8C00002B04DC094A7B68134401221A707B6822
:101A9C0001337B607B68092BDCDD00BF00BF0C379A
:101AAC00BD4680BC704700BF80020020740200203D
:101ABC0080B485B000AF154B9B69144A43F0010309
:101ACC009361124B9B6903F00103BB60BB680F4B26
:101ADC00DB690E4A43F08053D3610C4BDB6903F096
:101AEC0080537B607B680A4B5B68FB60FB6823F070
:101AFC00E063FB60FB6843F00073FB60044AFB6827
:101B0C00536000BF1437BD4680BC704700100240C4
:101B1C000000014080B588B000AF786007F1100379
:101B2C0000221A605A609A60DA607B681B68144A5B
:101B3C00934221D1134B9B69124A43F40073936176
:101B4C00104B9B6903F40073FB60FB680D4B9B69A6
:101B5C000C4A43F0040393610A4B9B6903F00403A2
:101B6C00BB60BB6801233B6103237B6107F110035E
:101B7C001946054801F0F0F900BF2037BD4680BD7D
:101B8C0000240140001002400008014080B58AB0DA
:101B9C0000AF786007F1140300221A605A609A6053
:101BAC00DA607B681B681D4A934232D11C4B9B69DF
:101BBC001B4A43F008039361194B9B6903F008031C
:101BCC003B613B694FF440737B611223BB61032380
:101BDC003B6207F114031946124801F0BDF9124B90
:101BEC005B687B627B6A43F0E0637B627B6A43F0F9
:101BFC0002037B620C4A7B6A5360094BDB69084A1F
:101C0C0043F40013D361064BDB6903F40013FB6050
:101C1C00FB6800BF2837BD4680BD00BF00540040A4
:101C2C0000100240000C01400000014080B584B05F
:101C3C0000AF78607B681B68B3F1804F13D10C4BFD
:101C4C00DB690B4A43F00103D361094BDB6903F0F9
:101C5C000103FB60FB68002200211C2001F093F8BB
:101C6C001C2001F0ACF800BF1037BD4680BD00BF92
:101C7C000010024080B588B000AF786007F1100307
:101C8C0000221A605A609A60DA607B681B681F4AEF
:101C9C00934237D11E4BDB691D4A43F40033D361A9
:101CAC001B4BDB6903F40033FB60FB68184B9B692F
:101CBC00174A43F004039361154B9B6903F004032B
:101CCC00BB60BB6804233B6102237B610323FB6184
:101CDC0007F1100319460F4801F03EF908233B6148
:101CEC0000237B610023BB6107F1100319460948EF
:101CFC0001F032F900220021262001F044F82620C0
:101D0C0001F05DF800BF2037BD4680BD00440040A7
:101D1C00001002400008014080B400AF00BFFDE796
:101D2C0080B400AF00BFFDE780B400AF00BFFDE79B
:101D3C0080B400AF00BFFDE780B400AF00BFFDE78B
:101D4C0080B400AF00BFBD4680BC704780B400AF0C
:101D5C0000BFBD4680BC704780B400AF00BFBD461D
:101D6C0080BC704780B500AF00F0CAFA00BF80BDE0
:101D7C0080B500AF024803F023FA00BF80BD00BF5E
:101D8C003801002080B500AF024803F069FE00BFA7
:101D9C0080BD00BF8001002080B586B000AF7860A8
:101DAC00144A154BD31A7B617B693B61134B1B683F
:101DBC00002B02D1114B124A1A60104B1A687B6827
:101DCC0013443A699A4207D204F010FC03460C22E1
:101DDC001A604FF0FF3309E0084B1B68FB60074BA0
:101DEC001A687B681344054A1360FB681846183759
:101DFC00BD4680BD0050002000040000940200206D
:101E0C002804002080B400AF00BFBD4680BC7047E2
:101E1C0080B485B000AF78600023FB607B681B78D2
:101E2C00522B02D10123FB6001E00023FB60FB6815
:101E3C0018461437BD4680BC704780B485B000AFDF
:101E4C0078600023FB607B681B78432B02D1012355
:101E5C00FB6001E00023FB60FB6818461437BD46AD
:101E6C0080BC704780B500AF2D4B1B78022B37D050
:101E7C00022B4CDC002B02D0012B08D047E0294B65
:101E8C001B78212B45D1264B01221A7041E0254BA2
:101E9C001B78212B11D0234B1B78232B0DD0224BDD
:101EAC001B781A461F4B1978204B99541E4B1B78E4
:101EBC000133DAB21C4B1A702DE01A4B1B78212B14
:101ECC0003D1174B01221A7025E0164B1B78232BDC
:101EDC0021D1134B02221A70134B00221A701AE0F4
:101EEC001248FFF795FF0346012B03D1104B072235
:101EFC001A7008E00D48FFF7A0FF0346012B0CD128
:101F0C000B4B08221A70064B00221A7006E000BF19
:101F1C0004E000BF02E000BF00E000BF80BD00BFD6
:101F2C00D002002098020020D7020020D40200200A
:101F3C00D802002080B500AF2F4B1B780A2B56D847
:101F4C0001A252F823F000BF811F0008FB1F0008FC
:101F5C00FB1F0008FB1F0008FB1F0008FB1F0008ED
:101F6C00FB1F0008F31F0008BD1F0008911F00088D
:101F7C00D91F0008204B09221A7002210120FFF7FB
:101F8C0043FD37E01D4B9B78012B09D1002220210A
:101F9C001B4801F07CF902214FF49670FFF734FDD9
:101FAC00FEF79AFC01222021154801F070F921E07E
:101FBC0000222021124801F06AF904214FF47A70B2
:101FCC00FFF722FD0C4B0A221A7013E0002220218D
:101FDC000B4801F05CF9094B1B79012B09D1064B1D
:101FEC0000221A7005E0044B00221A7002E000BFB8
:101FFC0000E000BF00BF80BDD802002074020020AA
:10200C0000080140B0B598B000AF2A4B07F140046E
:10201C001D460FCD0FC495E8070003C4228007F1BD
:10202C0040031846FEF78CF803469AB207F14001BC
:10203C004FF0FF33204803F063FC0023A7F85E3019
:10204C002FE0B7F85E305B0099B20A2301221B48DF
:10205C0001F0E4FD034687F85D3097F85D30002B06
:10206C0013D1B7F85E303846154A402104F062FAB5
:10207C003B461846FEF764F803469AB239464FF0D1
:10208C00FF330D4803F03CFC06E04FF0FF33012218
:10209C000C49094803F034FCB7F85E300133A7F85B
:1020AC005E30B7F85E307F2BCBD900BF00BF6037F6
:1020BC00BD46B0BDBC6F000880010020E4000020CC
:1020CC00B06F0008B86F000890B589B000AF07F189
:1020DC001C0207F11E0311461846FFF7FFF8414B8F
:1020EC005B88414AA2FB0323DB089BB21846FEF730
:1020FC00E9F804463B4B5A883B4BA3FB0213D90827
:10210C000B469B000B445B00D31A9BB21846FEF7A0
:10211C00D9F8034635491846FEF7DCF9034619464B
:10212C002046FEF71BF80346BB612E4B1B882E4A3C
:10213C00A2FB0323DB089BB21846FEF7C3F8044648
:10214C00284B1A88284BA3FB0213D9080B469B007B
:10215C000B445B00D31A9BB21846FEF7B3F8034648
:10216C0022491846FEF7B6F9034619462046FDF7F4
:10217C00F5FF03467B61FB8B1846FEF79FF8044680
:10218C00BB8B1846FEF79AF8034619491846FEF71A
:10219C00A1F9034619462046FDF7E0FF03463B61D3
:1021AC00BB69FB607B69BB603B697B6007F10C0121
:1021BC004FF4FA7304220F4803F0A2FB07F1080155
:1021CC004FF4FA7304220B4803F09AFB391D4FF4B9
:1021DC00FA730422074803F093FB00BF2437BD4673
:1021EC0090BD00BF7C000020CDCCCCCC00002041A9
:1021FC0000007A448001002080B500AF084B1B78AA
:10220C00012B04D1FFF72EFE054B00221A70054B53
:10221C00DB78012B01D1FFF78DFE00BF80BD00BF25
:10222C00CF020020740200200C480D490D4A0023F7
:10223C0002E0D458C4500433C4188C42F9D30A4A6F
:10224C000A4C002301E013600432A242FBD3FFF7D7
:10225C00D9FD04F0D1F9FEF739FD704700000020DC
:10226C00600000205C700008600000202804002042
:10227C00FEE7000080B500AF084B1B68074A43F02F
:10228C0010031360032000F073FD0F2000F008F81A
:10229C00FFF70EFC0023184680BD00BF0020024053
:1022AC0080B582B000AF7860124B1A68124B1B7865
:1022BC0019464FF47A73B3FBF1F3B2FBF3F3184600
:1022CC0000F08BFD0346002B01D001230EE07B6850
:1022DC000F2B0AD8002279684FF0FF3000F053FD25
:1022EC00064A7B681360002300E001231846083778
:1022FC00BD4680BD040000200C000020080000201A
:10230C0080B400AF054B1B781A46054B1B68134471
:10231C00034A136000BFBD4680BC70470C00002010
:10232C00DC02002080B400AF024B1B681846BD468F
:10233C0080BC7047DC02002080B584B000AF7860B0
:10234C00FFF7F0FFB8607B68FB60FB68B3F1FF3F01
:10235C0005D00A4B1B781A46FB681344FB6000BF80
:10236C00FFF7E0FF0246BB68D31AFA689A42F7D827
:10237C0000BF00BF1037BD4680BD00BF0C00002061
:10238C0080B586B000AF78600023FB7500233B61FD
:10239C000023BB600023FB607B68002B01D1012371
:1023AC00BEE07B689B68002B7B689B6A002B09D185
:1023BC007B680022DA627B68002283F8242078682C
:1023CC00FFF7A8FB786800F0C5FB0346FB757B683C
:1023DC009B6A03F01003002B40F09980FB7D002BCF
:1023EC0040F095807B689B6A23F4885323F00203AA
:1023FC0043F002027B689A627B685A687B68DB69EF
:10240C001A437B681B7B5B001343BA681343BB60A6
:10241C007B689B68B3F5807F03D07B689B68012B3E
:10242C0002D14FF4807300E000233A6913433B61FF
:10243C007B681B7D012B19D17B681B7B002B09D181
:10244C007B689B69013B5A033B69134343F400636C
:10245C003B610BE07B689B6A43F020027B689A62CD
:10246C007B68DB6A43F001027B68DA627B681B687D
:10247C005B6823F469417B681B683A690A435A60BC
:10248C007B681B689A68284B13407A681268B96895
:10249C000B4393607B689B68B3F5807F03D07B68AC
:1024AC009B68012B04D17B681B69013B1B05FB60FE
:1024BC007B681B68DB6A23F470017B681B68FA6815
:1024CC000A43DA627B681B689A68184B1340BA6837
:1024DC009A420BD17B680022DA627B689B6A23F0FC
:1024EC00030343F001027B689A6218E07B689B6AE5
:1024FC0023F0120343F010027B689A627B68DB6A5C
:10250C0043F001027B68DA620123FB7507E07B680C
:10251C009B6A43F010027B689A620123FB75FB7D7A
:10252C0018461837BD4680BDFDF7E1FFFE0E1FFFB4
:10253C0080B584B000AF78600023FB737B6893F8A0
:10254C002430012B01D1022398E07B68012283F80F
:10255C002420786800F0A4FA0346FB73FB7B002B65
:10256C0040F087807B689B6A23F4407323F001035F
:10257C0043F480727B689A627B681B68414A934281
:10258C0005D1414B5B6803F47023002B15D17B689C
:10259C009B6A23F480127B689A627B681B685B6879
:1025AC0003F48063002B26D07B689B6A23F4405392
:1025BC0043F480527B689A621DE07B689B6A43F40B
:1025CC0080127B689A627B681B682F4A934204D006
:1025DC007B681B682B4A93420DD12B4B5B6803F431
:1025EC008063002B07D07B689B6A23F4405343F431
:1025FC0080527B689A627B689B6A03F48053002B41
:10260C0006D07B68DB6A23F006027B68DA6202E0A4
:10261C007B680022DA627B68002283F824207B68C6
:10262C001B686FF002021A607B681B689B6803F4DE
:10263C006023B3F5602F13D17B681B68114A93425A
:10264C0005D1114B5B6803F47023002B08D17B6818
:10265C001B689A687B681B6842F4A0029A600CE0C5
:10266C007B681B689A687B681B6842F480129A60CE
:10267C0003E07B68002283F82420FB7B184610378C
:10268C00BD4680BD002801400024014090B587B0B4
:10269C0000AF7860396000237B610023FB6000236E
:1026AC003B61FFF73FFE78617B681B689B6803F416
:1026BC008073002B0BD07B689B6A43F020027B68F5
:1026CC009A627B68002283F824200123D3E07B6884
:1026DC001B685B6803F48073002B31D17B681B682B
:1026EC00DB6A03F47003002B2AD121E03B68B3F1C1
:1026FC00FF3F1DD03B68002B07D0FFF713FE0246AF
:10270C007B69D31A3A689A4212D27B681B681B68A1
:10271C0003F00203002B0BD17B689B6A43F004028D
:10272C007B689A627B68002283F824200323A2E052
:10273C007B681B681B6803F00203002BD6D070E08B
:10274C004F4B1C68022002F0E3FB0346B4FBF3F290
:10275C007B681B6819694B4B0B40002B18D17B68AD
:10276C001B68D968484B0B40002B11D17B681B6848
:10277C001969464B0B40002B08D17B681B68D96844
:10278C00434B0B40002B01D1142320E029231EE0E6
:10279C007B681B6819693D4B0B40002B06D17B688D
:1027AC001B68D9683A4B0B40002B0DD07B681B681B
:1027BC001969384B0B40002B08D17B681B68D96812
:1027CC00344B0B40002B01D1542300E0FC2302FBC3
:1027DC0003F33B6121E03B68B3F1FF3F1AD03B6848
:1027EC00002B07D0FFF79EFD02467B69D31A3A688F
:1027FC009A420FD2FB683A699A420BD97B689B6A62
:10280C0043F004027B689A627B68002283F82420E0
:10281C00032330E0FB680133FB60FB683A699A42A2
:10282C00D9D87B681B686FF012021A607B689B6AB0
:10283C0043F400727B689A627B681B689B6803F4A4
:10284C006023B3F5602F15D17B681B7B002B11D156
:10285C007B689B6A23F480727B689A627B689B6AB4
:10286C0003F48053002B05D17B689B6A43F0010273
:10287C007B689A62002318461C37BD4690BD00BF8A
:10288C0004000020244992242449920092244912E5
:10289C00922449004992240080B483B000AF786040
:1028AC007B681B68DB6C18460C37BD4680BC7047D8
:1028BC0080B485B000AF786039600023FB730023CF
:1028CC00BB607B6893F82430012B01D10223DCE040
:1028DC007B68012283F824203B685B68062B1CD89C
:1028EC007B681B68596B3B685A6813469B00134402
:1028FC00053B1F2202FA03F3DB4319403B681868BF
:10290C003B685A6813469B001344053B00FA03F2DC
:10291C007B681B680A435A633CE03B685B680C2B82
:10292C001CD87B681B68196B3B685A6813469B0064
:10293C001344233B1F2202FA03F3DB4319403B6889
:10294C0018683B685A6813469B001344233B00FAF3
:10295C0003F27B681B680A431A631BE07B681B68E5
:10296C00D96A3B685A6813469B001344413B1F22AB
:10297C0002FA03F3DB4319403B6818683B685A685A
:10298C0013469B001344413B00FA03F27B681B681F
:10299C000A43DA623B681B68092B1CD97B681B68ED
:1029AC00D9683B681A6813465B0013441E3B072228
:1029BC0002FA03F3DB4319403B6898683B681A68DA
:1029CC0013465B0013441E3B00FA03F27B681B6842
:1029DC000A43DA6019E07B681B6819693B681A685E
:1029EC0013465B001344072202FA03F3DB4319403E
:1029FC003B6898683B681A6813465B00134400FAFE
:102A0C0003F27B681B680A431A613B681B68102B36
:102A1C0003D03B681B68112B32D17B681B681D4AA5
:102A2C00934225D17B681B689B6803F40003002B41
:102A3C0026D17B681B689A687B681B6842F400028D
:102A4C009A603B681B68102B1AD1134B1B68134AF6
:102A5C00A2FB03239A0C13469B0013445B00BB6040
:102A6C0002E0BB68013BBB60BB68002BF9D107E0FF
:102A7C007B689B6A43F020027B689A620123FB739C
:102A8C007B68002283F82420FB7B18461437BD4654
:102A9C0080BC7047002401400400002083DE1B43EF
:102AAC0080B584B000AF78600023FB600023BB606E
:102ABC007B681B689B6803F00103012B40D07B688B
:102ACC001B689A687B681B6842F001029A601F4B76
:102ADC001B681F4AA2FB03239B0CBB6002E0BB6874
:102AEC00013BBB60BB68002BF9D1FFF71BFCF86006
:102AFC001FE0FFF717FC0246FB68D31A022B18D90C
:102B0C007B681B689B6803F00103012B11D07B6869
:102B1C009B6A43F010027B689A627B68DB6A43F025
:102B2C0001027B68DA627B68002283F8242001238F
:102B3C0007E07B681B689B6803F00103012BD8D16D
:102B4C00002318461037BD4680BD00BF040000208E
:102B5C0083DE1B4380B584B000AF78600023FB603C
:102B6C007B681B689B6803F00103012B2ED17B68EB
:102B7C001B689A687B681B6822F001029A60FFF759
:102B8C00D1FBF8601BE0FFF7CDFB0246FB68D31AC4
:102B9C00022B14D97B681B689B6803F00103012B83
:102BAC000DD17B689B6A43F010027B689A627B684C
:102BBC00DB6A43F001027B68DA62012307E07B6881
:102BCC001B689B6803F00103012BDCD00023184623
:102BDC001037BD4680BD000080B485B000AF786072
:102BEC007B6803F00703FB600C4BDB68BB60BA68C7
:102BFC004FF6FF031340BB60FB681A02BB6813431C
:102C0C0043F0BF6343F40033BB60044ABB68D3603A
:102C1C0000BF1437BD4680BC704700BF00ED00E01C
:102C2C0080B400AF044BDB681B0A03F007031846A3
:102C3C00BD4680BC704700BF00ED00E080B483B09F
:102C4C0000AF0346FB7197F90730002B0BDBFB79C8
:102C5C0003F01F02064997F907305B09012000FABF
:102C6C0002F241F8232000BF0C37BD4680BC7047F0
:102C7C0000E100E080B483B000AF03463960FB7123
:102C8C0097F90730002B0ADB3B68DAB20C4997F94D
:102C9C0007301201D2B20B4483F800230AE03B68E0
:102CAC00DAB20849FB7903F00F03043B1201D2B2EC
:102CBC000B441A7600BF0C37BD4680BC704700BF72
:102CCC0000E100E000ED00E080B489B000AFF860F6
:102CDC00B9607A60FB6803F00703FB61FB69C3F121
:102CEC000703042B28BF0423BB61FB690433062BA9
:102CFC0002D9FB69033B00E000237B614FF0FF32FC
:102D0C00BB6902FA03F3DA43BB681A407B699A4049
:102D1C004FF0FF317B6901FA03F3D9437B680B4019
:102D2C00134318462437BD4680BC704780B582B02B
:102D3C0000AF78607B68013BB3F1807F01D3012346
:102D4C000FE00A4A7B68013B53600F214FF0FF30C4
:102D5C00FFF790FF054B00229A60044B07221A6084
:102D6C00002318460837BD4680BD00BF10E000E0C8
:102D7C0080B582B000AF78607868FFF72DFF00BF98
:102D8C000837BD4680BD80B586B000AF0346B9603C
:102D9C007A60FB7300237B61FFF742FF78617A68EE
:102DAC00B9687869FFF790FF024697F90F30114622
:102DBC001846FFF75FFF00BF1837BD4680BD80B5D2
:102DCC0082B000AF0346FB7197F907301846FFF746
:102DDC0035FF00BF0837BD4680BD80B582B000AF5F
:102DEC0078607868FFF7A2FF034618460837BD469F
:102DFC0080BD80B485B000AF78600023FB737B6826
:102E0C0093F82130DBB2022B08D07B6804229A6342
:102E1C007B68002283F82020012320E07B681B685C
:102E2C001A687B681B6822F00E021A607B681B68AC
:102E3C001A687B681B6822F001021A607B681A6CA6
:102E4C007B68DB6B012101FA02F25A607B6801227C
:102E5C0083F821207B68002283F82020FB7B184616
:102E6C001437BD4680BC704780B584B000AF786025
:102E7C000023FB737B6893F82130DBB2022B05D067
:102E8C007B6804229A630123FB7351E07B681B6807
:102E9C001A687B681B6822F00E021A607B681B683C
:102EAC001A687B681B6822F001021A607B681B6839
:102EBC00224A934229D07B681B68214A934222D034
:102ECC007B681B681F4A93421AD07B681B681E4A9A
:102EDC00934212D07B681B681C4A93420AD07B68D1
:102EEC001B681B4A934202D14FF480130EE04FF043
:102EFC0080730BE04FF4803308E04FF4805305E00F
:102F0C004FF4807302E0102300E00123114A536058
:102F1C007B68012283F821207B68002283F8202023
:102F2C007B685B6B002B03D07B685B6B7868984786
:102F3C00FB7B18461037BD4680BD00BF0800024021
:102F4C001C00024030000240440002405800024085
:102F5C006C0002400000024080B48BB000AF78607F
:102F6C00396000237B6200233B6269E101227B6AAA
:102F7C0002FA03F3FB613B681B68FA691340BB61FF
:102F8C00BA69FB699A4240F058813B685B689A4A7F
:102F9C0093425ED0984A934275D8984A934258D03F
:102FAC00964A93426FD8964A934252D0944A93428F
:102FBC0069D8944A93424CD0924A934263D8924A2D
:102FCC00934246D0904A93425DD8122B2AD8122BAA
:102FDC0059D801A252F823F05F30000839300008AC
:102FEC004B3000088D3000089330000893300008F7
:102FFC009330000893300008933000089330000899
:10300C009330000893300008933000089330000888
:10301C0093300008933000089330000841300008CA
:10302C0055300008794A934213D02CE03B68DB689A
:10303C003B6229E03B68DB6804333B6224E03B687D
:10304C00DB6808333B621FE03B68DB680C333B6298
:10305C001AE03B689B68002B02D104233B6213E00F
:10306C003B689B68012B05D108233B627B68FA699E
:10307C001A6109E008233B627B68FA695A6103E034
:10308C0000233B6200E000BFBB69FF2B01D87B68CB
:10309C0001E07B6804337B61BB69FF2B02D87B6A40
:1030AC009B0002E07B6A083B9B003B617B691A68D2
:1030BC000F213B6901FA03F3DB431A40396A3B6980
:1030CC0001FA03F31A437B691A603B685B6803F0EF
:1030DC008053002B00F0B1804D4B9B694C4A43F060
:1030EC00010393614A4B9B6903F00103BB60BB680E
:1030FC00484A7B6A9B08023352F82330FB607B6A98
:10310C0003F003039B000F2202FA03F3DB43FA687C
:10311C001340FB607B68404A934213D07B683F4A64
:10312C0093420DD07B683E4A934207D07B683D4A60
:10313C00934201D1032306E0042304E0022302E0BE
:10314C00012300E000237A6A02F00302920093400C
:10315C00FA681343FB602F497B6A9B080233FA68B9
:10316C0041F823203B685B6803F48013002B06D0E6
:10317C002D4B9A682C49BB6913438B6006E02A4B94
:10318C009A68BB69DB43284913408B603B685B68DA
:10319C0003F40013002B06D0234BDA682249BB69D9
:1031AC001343CB6006E0204BDA68BB69DB431E4956
:1031BC001340CB603B685B6803F40033002B06D0F4
:1031CC00194B5A681849BB6913434B6006E0164B00
:1031DC005A68BB69DB43144913404B603B685B681E
:1031EC0003F48033002B21D00F4B1A680E49BB69B6
:1031FC0013430B6021E000BF0000321000003110BF
:10320C00000022100000211000001210000011100C
:10321C00001002400000014000080140000C014079
:10322C000010014000140140000401400B4B1A68CF
:10323C00BB69DB43094913400B607B6A01337B623A
:10324C003B681A687B6A22FA03F3002B7FF48EAE7C
:10325C0000BF00BF2C37BD4680BC70470004014046
:10326C0080B485B000AF78600B467B807B689A6831
:10327C007B881340002B02D00123FB7301E0002359
:10328C00FB73FB7B18461437BD4680BC704780B47B
:10329C0083B000AF78600B467B8013467B707B78E5
:1032AC00002B03D07A887B681A6103E07B881A04B0
:1032BC007B681A6100BF0C37BD4680BC70470000AC
:1032CC0080B584B000AF78607B68002B01D10123FE
:1032DC002BE17B6893F83D30DBB2002B06D17B6889
:1032EC00002283F83C207868FEF750FC7B6824228F
:1032FC0083F83D207B681B681A687B681B6822F08A
:10330C0001021A607B681B681A687B681B6842F4B0
:10331C0000421A607B681B681A687B681B6822F481
:10332C0000421A6001F0F8FCF8607B685B68814A27
:10333C00934207D8FB68804A934294BF0123002331
:10334C00DBB206E0FB687D4A934294BF0123002365
:10335C00DBB2002B01D00123E7E0FB68784AA2FB2B
:10336C0003239B0CBB607B681B685B6823F03F01ED
:10337C007B681B68BA680A435A607B681B681B6AC7
:10338C0023F03F017B685B686A4A934202D8BB68B2
:10339C00013309E0BB684FF4967202FB03F3694AF0
:1033AC00A2FB03239B0901337A6812680B43136257
:1033BC007B681B68DB6923F44F4222F0FF027B68B9
:1033CC005B685C498B4219D8FB68591E7B685B684B
:1033DC005B00B1FBF3F3591C40F6FC730B40002B64
:1033EC000AD0FB68591E7B685B685B00B1FBF3F38A
:1033FC000133C3F30B0351E004234FE07B689B685C
:10340C00002B11D1FB68581E7B6859680B465B007A
:10341C000B44B0FBF3F30133C3F30B03002B0CBFD2
:10342C0001230023DBB212E0FB68581E7B6859684D
:10343C000B469B000B4499000B44B0FBF3F3013398
:10344C00C3F30B03002B0CBF01230023DBB2002BB7
:10345C0001D0012322E07B689B68002B0ED1FB6816
:10346C00581E7B6859680B465B000B44B0FBF3F3AA
:10347C000133C3F30B0343F400430FE0FB68581E06
:10348C007B6859680B469B000B4499000B44B0FBBE
:10349C00F3F30133C3F30B0343F440437968096836
:1034AC001343CB617B681B681B6823F0C0017B68EE
:1034BC00DA697B681B6A1A437B681B680A431A60CB
:1034CC007B681B689B6823F4034323F0FF037A6833
:1034DC0011697A68D26811437A6812680B43936059
:1034EC007B681B68DB6823F0FF017B685A697B688B
:1034FC009B691A437B681B680A43DA607B681B680C
:10350C001A687B681B6842F001021A607B68002213
:10351C001A647B68202283F83D207B6800221A63A2
:10352C007B68002283F83E20002318461037BD46E6
:10353C0080BD00BFA08601007F841E00FF083D00F7
:10354C0083DE1B43D34D621080B588B002AFF860A8
:10355C007A601A460B467B8113463B81FEF7E2FEEE
:10356C007861FB6893F83D30DBB2202B40F0E080B3
:10357C007B690093192301227049F86800F0CCFD97
:10358C000346002B01D00223D3E0FB6893F83C30B8
:10359C00012B01D10223CCE0FB68012283F83C20F3
:1035AC00FB681B681B6803F00103012B07D0FB6849
:1035BC001B681A68FB681B6842F001021A60FB6802
:1035CC001B681A68FB681B6822F400621A60FB68AF
:1035DC00212283F83D20FB68102283F83E20FB68F3
:1035EC0000221A64FB687A685A62FB683A895A8529
:1035FC00FB685B8D9AB2FB681A85FB68504ADA62ED
:10360C0079897B693A6AF86800F036FC0346002B2E
:10361C0001D001238DE000233B61FB681B685B69D3
:10362C003B61FB681B689B693B613B6966E07A699F
:10363C00396AF86800F08AFE0346002B0DD0FB684F
:10364C001B6C042B07D1FB681B681A68FB681B6892
:10365C0042F400721A6001236BE0FB685B6A1A7813
:10366C00FB681B681A61FB685B6A5A1CFB685A6230
:10367C00FB685B8D9BB2013B9AB2FB685A85FB6879
:10368C001B8D013B9AB2FB681A85FB681B685B6952
:10369C0003F00403042B1BD1FB681B8D002B17D0EC
:1036AC00FB685B6A1A78FB681B681A61FB685B6ACB
:1036BC005A1CFB685A62FB685B8D9BB2013B9AB249
:1036CC00FB685A85FB681B8D013B9AB2FB681A8517
:1036DC007A69396AF86800F081FE0346002B0DD038
:1036EC00FB681B6C042B07D1FB681B681A68FB6812
:1036FC001B6842F400721A6001231AE0FB681B8DF0
:10370C00002B94D1FB681B681A68FB681B6842F499
:10371C0000721A60FB68202283F83D20FB680022AF
:10372C0083F83E20FB68002283F83C20002300E055
:10373C00022318461837BD4680BD00BF020010009A
:10374C000000FFFF80B58CB002AFF8607A601A46BB
:10375C000B467B8113463B8100233B62FEF7E2FD67
:10376C007862FB6893F83D30DBB2202B40F04B8243
:10377C007B6A0093192301227F49F86800F0CCFC86
:10378C000346002B01D002233EE2FB6893F83C3049
:10379C00012B01D1022337E2FB68012283F83C2084
:1037AC00FB681B681B6803F00103012B07D0FB6847
:1037BC001B681A68FB681B6842F001021A60FB6800
:1037CC001B681A68FB681B6822F400621A60FB68AD
:1037DC00222283F83D20FB68102283F83E20FB68F0
:1037EC0000221A64FB687A685A62FB683A895A8527
:1037FC00FB685B8D9AB2FB681A85FB685F4ADA62DC
:10380C0079897B6A3A6BF86800F0B8FB0346002BA9
:10381C0001D00123F8E1FB681B8D002B13D1002391
:10382C00FB61FB681B685B69FB61FB681B689B6940
:10383C00FB61FB69FB681B681A68FB681B6842F438
:10384C0000721A60CCE1FB681B8D012B1ED1FB684A
:10385C001B681A68FB681B6822F480621A6072B6D7
:10386C0000BF0023BB61FB681B685B69BB61FB6825
:10387C001B689B69BB61BB69FB681B681A68FB68AA
:10388C001B6842F400721A6062B635E0FB681B8D4F
:10389C00022B1ED1FB681B681A68FB681B6842F47C
:1038AC0000621A6072B600BF00237B61FB681B6864
:1038BC005B697B61FB681B689B697B617B69FB684F
:1038CC001B681A68FB681B6822F480621A6062B677
:1038DC0012E0FB681B681A68FB681B6842F4806284
:1038EC001A6000233B61FB681B685B693B61FB68EA
:1038FC001B689B693B613B6972E1FB681B8D032B69
:10390C0000F21F81FB681B8D012B23D17A6A396B66
:10391C00F86800F0ABFD0346002B01D0012373E1E6
:10392C00FB681B681A69FB685B6AD2B21A70FB6889
:10393C005B6A5A1CFB685A62FB681B8D013B9AB28E
:10394C00FB681A85FB685B8D9BB2013B9AB2FB68E6
:10395C005A8545E1FB681B8D022B52D17B6A009383
:10396C003B6B00220649F86800F0D6FB0346002B9F
:10397C0008D0012348E100BF020010000000FFFF47
:10398C000400010072B600BFFB681B681A68FB6874
:10399C001B6842F400721A60FB681B681A69FB68AA
:1039AC005B6AD2B21A70FB685B6A5A1CFB685A627B
:1039BC00FB681B8D013B9AB2FB681A85FB685B8D1B
:1039CC009BB2013B9AB2FB685A8562B600BFFB689A
:1039DC001B681A69FB685B6AD2B21A70FB685B6A77
:1039EC005A1CFB685A62FB681B8D013B9AB2FB6840
:1039FC001A85FB685B8D9BB2013B9AB2FB685A85BA
:103A0C00EEE07B6A00933B6B00228149F86800F082
:103A1C0083FB0346002B01D00123F5E0FB681B68F8
:103A2C001A68FB681B6822F480621A6072B600BFC9
:103A3C00FB681B681A69FB685B6AD2B21A70FB6878
:103A4C005B6A5A1CFB685A62FB681B8D013B9AB27D
:103A5C00FB681A85FB685B8D9BB2013B9AB2FB68D5
:103A6C005A856C4B1B68DB086B4AA2FB03231A0AB2
:103A7C0013469B001344DA00D31A3B623B6A013BAA
:103A8C003B623B6A002B18D1FB6800221A63FB686F
:103A9C00202283F83D20FB68002283F83E20FB683F
:103AAC001B6C43F02002FB681A6462B600BFFB6813
:103ABC00002283F83C200123A6E0FB681B685B69AD
:103ACC0003F00403042BD9D1FB681B681A68FB684C
:103ADC001B6842F400721A60FB681B681A69FB6869
:103AEC005B6AD2B21A70FB685B6A5A1CFB685A623A
:103AFC00FB681B8D013B9AB2FB681A85FB685B8DDA
:103B0C009BB2013B9AB2FB685A8562B600BFFB6858
:103B1C001B681A69FB685B6AD2B21A70FB685B6A35
:103B2C005A1CFB685A62FB681B8D013B9AB2FB68FE
:103B3C001A85FB685B8D9BB2013B9AB2FB685A8578
:103B4C004EE07A6A396BF86800F090FC0346002B63
:103B5C0001D0012358E0FB681B681A69FB685B6A9B
:103B6C00D2B21A70FB685B6A5A1CFB685A62FB681B
:103B7C001B8D013B9AB2FB681A85FB685B8D9BB26F
:103B8C00013B9AB2FB685A85FB681B685B6903F0C2
:103B9C000403042B24D1FB681B8D032B07D1FB687A
:103BAC001B681A68FB681B6822F480621A60FB6849
:103BBC001B681A69FB685B6AD2B21A70FB685B6A95
:103BCC005A1CFB685A62FB681B8D013B9AB2FB685E
:103BDC001A85FB685B8D9BB2013B9AB2FB685A85D8
:103BEC00FB681B8D002B7FF488AEFB68202283F8CA
:103BFC003D20FB68002283F83E20FB68002283F8FE
:103C0C003C20002300E0022318462837BD4680BD27
:103C1C00040001000400002089B5F81480B58AB0B6
:103C2C0002AFF8607A603B600B467B81FEF77AFB53
:103C3C00F8610023BB61FB6893F83D30DBB2202BAD
:103C4C0040F01181FB690093192301228849F8681F
:103C5C0000F062FA0346002B01D0022304E1FB685A
:103C6C0093F83C30012B01D10223FDE0FB680122CB
:103C7C0083F83C20FB681B681B6803F00103012BD5
:103C8C0007D0FB681B681A68FB681B6842F00102CE
:103C9C001A60FB681B681A68FB681B6822F40062D8
:103CAC001A60FB68242283F83D20FB6800221A640A
:103CBC00FB68704ADA62FB681B681A68FB681B6851
:103CCC0042F480721A60FB6900933B6800224FF04B
:103CDC000111F86800F020FA0346002B0DD0FB68A8
:103CEC001B681B6803F48073B3F5807F03D1FB68FA
:103CFC004FF400721A640323B6E07B89DBB21A46D8
:103D0C00FB681B6802F0FE021A61FEF70BFBF86100
:103D1C00FB681B685B6903F00203022B0CBF0123D9
:103D2C000023DBB2FB75FB681B685B6903F48063E3
:103D3C00B3F5806F0CBF01230023DBB2BB7525E00C
:103D4C00FEF7F0FA0246FB69D31A3A689A4202D39C
:103D5C003B68002B03D1FB68A02283F83D20FB6855
:103D6C001B685B6903F00203022B0CBF01230023C9
:103D7C00DBB2FB75FB681B685B6903F48063B3F50E
:103D8C00806F0CBF01230023DBB2BB75FB6893F87B
:103D9C003D30DBB2A02B05D0FB7D002B02D1BB7DCF
:103DAC00002BCDD0FB68202283F83D20FB681B68DC
:103DBC005B6903F00203022B29D1FB681B681A68AC
:103DCC00FB681B6842F400721A6000233B61FB68BD
:103DDC001B685B693B61FB681B689B693B613B69CA
:103DEC00FB690093192301222149F86800F094F92A
:103DFC000346002B01D0012336E0FB68202283F818
:103E0C003D20FB68002283F83C2000232CE0FB685B
:103E1C001B681A68FB681B6842F400721A60FB6826
:103E2C001B686FF480625A61FB69009319230122AD
:103E3C000F49F86800F070F90346002B01D00123FC
:103E4C0012E0BB690133BB61BA697B689A42FFF42B
:103E5C0032AFFB68202283F83D20FB68002283F8F8
:103E6C003C20012300E0022318462037BD4680BDCC
:103E7C00020010000000FFFF80B588B002AFF860B0
:103E8C007A603B600B467B81FB68DB6A7B617B69FC
:103E9C00082B06D07B69012B03D07B6913F5803F7F
:103EAC0008D1FB681B681A68FB681B6842F48072B7
:103EBC001A600BE0FB681B6B122B07D1FB681B68AD
:103ECC001A68FB681B6842F480721A603B680093A6
:103EDC007B6800224FF00111F86800F01DF90346D1
:103EEC00002B0DD0FB681B681B6803F48073B3F5C3
:103EFC00807F03D1FB684FF400721A64032335E012
:103F0C00FB681B69B3F5804F08D17B89DBB21A467D
:103F1C00FB681B6802F0FE021A611BE07B89DB1157
:103F2C00DBB203F00603DBB263F00F03DAB2FB681B
:103F3C001B681A613B687A680E49F86800F066F9EC
:103F4C000346002B01D0012310E07B89DAB2FB6819
:103F5C001B681A613B687A680749F86800F056F9E3
:103F6C000346002B01D0012300E00023184618372C
:103F7C00BD4680BD080001000200010080B588B07C
:103F8C0002AFF8607A603B600B467B81FB68DB6AB2
:103F9C007B61FB681B681A68FB681B6842F48062D3
:103FAC001A607B69082B06D07B69012B03D07B69D7
:103FBC0013F5803F08D1FB681B681A68FB681B6807
:103FCC0042F480721A600BE0FB681B6B112B07D15B
:103FDC00FB681B681A68FB681B6842F480721A60E5
:103FEC003B6800937B6800224FF00111F86800F0E9
:103FFC0093F80346002B0DD0FB681B681B6803F479
:10400C008073B3F5807F03D1FB684FF400721A64A0
:10401C00032379E0FB681B69B3F5804F08D17B89DA
:10402C00DBB243F00103DAB2FB681B681A615FE094
:10403C007B89DB11DBB203F00603DBB263F00F0309
:10404C00DAB2FB681B681A613B687A683049F86819
:10405C0000F0DCF80346002B01D0012354E07B89EF
:10406C00DAB2FB681B681A613B687A682949F86800
:10407C0000F0CCF80346002B01D0012344E00023D0
:10408C003B61FB681B685B693B61FB681B689B6958
:10409C003B613B69FB681B681A68FB681B6842F450
:1040AC0080721A603B6800937B6800224FF001110C
:1040BC00F86800F031F80346002B0DD0FB681B6844
:1040CC001B6803F48073B3F5807F03D1FB684FF456
:1040DC0000721A64032317E07B89DB11DBB203F057
:1040EC000603DBB263F00E03DAB2FB681B681A61DD
:1040FC003B687A680749F86800F088F80346002B9B
:10410C0001D0012300E0002318461837BD4680BDBE
:10411C00080001000200010080B584B000AFF86017
:10412C00B9603B601346FB7148E03B68B3F1FF3F5D
:10413C0044D0FEF7F7F80246BB69D31A3A689A42A4
:10414C0002D33B68002B39D1BB681B0CDBB2012BB3
:10415C000DD1FB681B685B69DA43BB6813409BB2EB
:10416C00002B0CBF01230023DBB21A460CE0FB68CA
:10417C001B689B69DA43BB6813409BB2002B0CBFD6
:10418C0001230023DBB21A46FB799A4216D1FB6855
:10419C0000221A63FB68202283F83D20FB68002272
:1041AC0083F83E20FB681B6C43F02002FB681A640A
:1041BC00FB68002283F83C20012323E0BB681B0C26
:1041CC00DBB2012B0DD1FB681B685B69DA43BB6862
:1041DC0013409BB2002B0CBF01230023DBB21A4609
:1041EC000CE0FB681B689B69DA43BB6813409BB20D
:1041FC00002B0CBF01230023DBB21A46FB799A4239
:10420C0093D0002318461037BD4680BD80B584B0CE
:10421C0000AFF860B9607A603B6071E0FB681B68C6
:10422C005B6903F48063B3F5806F23D1FB681B6873
:10423C001A68FB681B6842F400721A60FB681B6802
:10424C006FF480625A61FB6800221A63FB682022BB
:10425C0083F83D20FB68002283F83E20FB681B6C32
:10426C0043F00402FB681A64FB68002283F83C20CC
:10427C00012367E07B68B3F1FF3F41D0FEF752F8B2
:10428C0002463B68D31A7A689A4202D37B68002BA9
:10429C0036D1BB681B0CDBB2012B0CD1FB681B6845
:1042AC005B69DA43BB6813409BB2002B14BF01233C
:1042BC000023DBB20BE0FB681B689B69DA43BB682D
:1042CC0013409BB2002B14BF01230023DBB2002B45
:1042DC0016D0FB6800221A63FB68202283F83D206D
:1042EC00FB68002283F83E20FB681B6C43F0200225
:1042FC00FB681A64FB68002283F83C20012321E050
:10430C00BB681B0CDBB2012B0CD1FB681B685B6917
:10431C00DA43BB6813409BB2002B14BF012300236C
:10432C00DBB20BE0FB681B689B69DA43BB6813408C
:10433C009BB2002B14BF01230023DBB2002B7FF4B4
:10434C006DAF002318461037BD4680BD80B584B0D4
:10435C0000AFF860B9607A6034E0F86800F0E3F818
:10436C000346002B01D0012334E0BB68B3F1FF3FBF
:10437C0028D0FDF7D7FF02467B68D31ABA689A4259
:10438C0002D3BB68002B1DD1FB681B685B6903F073
:10439C008003802B16D0FB6800221A63FB68202256
:1043AC0083F83D20FB68002283F83E20FB681B6CE1
:1043BC0043F02002FB681A64FB68002283F83C205F
:1043CC00012307E0FB681B685B6903F08003802B0B
:1043DC00C3D1002318461037BD4680BD80B584B0CC
:1043EC0000AFF860B9607A6034E0F86800F09BF8D0
:1043FC000346002B01D0012334E0BB68B3F1FF3F2F
:10440C0028D0FDF78FFF02467B68D31ABA689A4210
:10441C0002D3BB68002B1DD1FB681B685B6903F0E2
:10442C000403042B16D0FB6800221A63FB682022BD
:10443C0083F83D20FB68002283F83E20FB681B6C50
:10444C0043F02002FB681A64FB68002283F83C20CE
:10445C00012307E0FB681B685B6903F00403042B72
:10446C00C3D1002318461037BD4680BD80B584B03B
:10447C0000AFF860B9607A6049E0FB681B685B6963
:10448C0003F01003102B19D1FB681B686FF010029E
:10449C005A61FB6800221A63FB68202283F83D20D6
:1044AC00FB68002283F83E20FB681A6CFB681A64D8
:1044BC00FB68002283F83C20012330E0FDF732FF3B
:1044CC0002467B68D31ABA689A4202D3BB68002BA7
:1044DC001DD1FB681B685B6903F04003402B16D0B1
:1044EC00FB6800221A63FB68202283F83D20FB68DE
:1044FC00002283F83E20FB681B6C43F02002FB6813
:10450C001A64FB68002283F83C20012307E0FB6857
:10451C001B685B6903F04003402BAED100231846A7
:10452C001037BD4680BD80B483B000AF78607B6827
:10453C001B685B6903F48063B3F5806F1BD17B68E8
:10454C001B686FF480625A617B6800221A637B6877
:10455C00202283F83D207B68002283F83E207B6874
:10456C001B6C43F004027B681A647B68002283F89E
:10457C003C20012300E0002318460C37BD4680BCCC
:10458C007047000080B586B000AF78607B68002B68
:10459C0001D1012372E27B681B6803F00103002B3D
:1045AC0000F08780924B5B6803F00C03042B0CD05B
:1045BC008F4B5B6803F00C03082B12D18C4B5B68A0
:1045CC0003F48033B3F5803F0BD1894B1B6803F4A4
:1045DC000033002B6CD07B685B68002B68D1012307
:1045EC004CE27B685B68B3F5803F06D1804B1B685F
:1045FC007F4A43F4803313602EE07B685B68002BAA
:10460C000CD17B4B1B687A4A23F480331360784BB4
:10461C001B68774A23F4802313601DE07B685B687A
:10462C00B3F5A02F0CD1724B1B68714A43F4802355
:10463C0013606F4B1B686E4A43F4803313600BE0BE
:10464C006B4B1B686A4A23F480331360684B1B68FE
:10465C00674A23F4802313607B685B68002B13D0BC
:10466C00FDF760FE386108E0FDF75CFE02463B6931
:10467C00D31A642B01D9032300E25D4B1B6803F4AE
:10468C000033002BF0D014E0FDF74CFE386108E04D
:10469C00FDF748FE02463B69D31A642B01D903236C
:1046AC00ECE1534B1B6803F40033002BF0D100E01A
:1046BC0000BF7B681B6803F00203002B63D04C4BDC
:1046CC005B6803F00C03002B0BD0494B5B6803F0C9
:1046DC000C03082B1CD1464B5B6803F48033002B76
:1046EC0016D1434B1B6803F00203002B05D07B68EB
:1046FC001B69012B01D00123C0E13D4B1B6823F04A
:10470C00F8027B685B69DB00394913430B603AE0C4
:10471C007B681B69002B20D0364B01221A60FDF7F9
:10472C0001FE386108E0FDF7FDFD02463B69D31A36
:10473C00022B01D90323A1E12D4B1B6803F00203CB
:10474C00002BF0D02A4B1B6823F0F8027B685B69C6
:10475C00DB00274913430B6015E0264B00221A603F
:10476C00FDF7E0FD386108E0FDF7DCFD02463B6932
:10477C00D31A022B01D9032380E11D4B1B6803F0D4
:10478C000203002BF0D17B681B6803F00803002B9D
:10479C003AD07B689B69002B19D0174B01221A6009
:1047AC00FDF7C0FD386108E0FDF7BCFD02463B6932
:1047BC00D31A022B01D9032360E10D4B5B6A03F082
:1047CC000203002BF0D0012000F0CEFA1CE00A4BC3
:1047DC0000221A60FDF7A6FD38610FE0FDF7A2FD7F
:1047EC0002463B69D31A022B08D9032346E100BFCA
:1047FC00001002400000424280044242924B5B6A2D
:10480C0003F00203002BE9D17B681B6803F004035F
:10481C00002B00F0A6800023FB758B4BDB6903F0AB
:10482C008053002B0DD1884BDB69874A43F08053B2
:10483C00D361854BDB6903F08053BB60BB680123FC
:10484C00FB75824B1B6803F48073002B18D17F4BD4
:10485C001B687E4A43F480731360FDF763FD386177
:10486C0008E0FDF75FFD02463B69D31A642B01D9C2
:10487C00032303E1754B1B6803F48073002BF0D00A
:10488C007B68DB68012B06D16F4B1B6A6E4A43F0C9
:10489C00010313622DE07B68DB68002B0CD16A4BA3
:1048AC001B6A694A23F001031362674B1B6A664A51
:1048BC0023F0040313621CE07B68DB68052B0CD12E
:1048CC00614B1B6A604A43F0040313625E4B1B6A24
:1048DC005D4A43F0010313620BE05B4B1B6A5A4ABF
:1048EC0023F001031362584B1B6A574A23F004034D
:1048FC0013627B68DB68002B15D0FDF713FD386164
:10490C000AE0FDF70FFD02463B69D31A41F28832EB
:10491C00934201D90323B1E04B4B1B6A03F0020312
:10492C00002BEED014E0FDF7FDFC38610AE0FDF73A
:10493C00F9FC02463B69D31A41F28832934201D901
:10494C0003239BE0404B1B6A03F00203002BEED1C8
:10495C00FB7D012B05D13C4BDB693B4A23F080539B
:10496C00D3617B68DB69002B00F08780364B5B687A
:10497C0003F00C03082B61D07B68DB69022B46D15A
:10498C00334B00221A60FDF7CDFC386108E0FDF7CF
:10499C00C9FC02463B69D31A022B01D903236DE0F3
:1049AC00294B1B6803F00073002BF0D17B681B6A4A
:1049BC00B3F5803F08D1244B5B6823F400327B684D
:1049CC009B68214913434B601F4B5B6823F47412A3
:1049DC007B68196A7B685B6A0B431B4913434B600A
:1049EC001B4B01221A60FDF79DFC386108E0FDF7B6
:1049FC0099FC02463B69D31A022B01D903233DE0F3
:104A0C00114B1B6803F00073002BF0D035E0104BFA
:104A1C0000221A60FDF786FC386108E0FDF782FC85
:104A2C0002463B69D31A022B01D9032326E0064B1D
:104A3C001B6803F00073002BF0D11EE07B68DB6970
:104A4C00012B07D1012319E0001002400070004037
:104A5C00600042420B4B5B68FB60FB6803F48032E6
:104A6C007B681B6A9A4206D1FB6803F470127B6860
:104A7C005B6A9A4201D0012300E0002318461837E4
:104A8C00BD4680BD0010024080B584B000AF786098
:104A9C0039607B68002B01D10123D0E06A4B1B6885
:104AAC0003F007033A689A4210D9674B1B6823F04E
:104ABC00070265493B6813430B60634B1B6803F0AB
:104ACC0007033A689A4201D00123B8E07B681B685F
:104ADC0003F00203002B20D07B681B6803F0040357
:104AEC00002B05D0594B5B68584A43F4E063536084
:104AFC007B681B6803F00803002B05D0534B5B68E5
:104B0C00524A43F460535360504B5B6823F0F002FD
:104B1C007B689B684D4913434B607B681B6803F0B3
:104B2C000103002B40D07B685B68012B07D1474BFE
:104B3C001B6803F40033002B15D101237FE07B6845
:104B4C005B68022B07D1414B1B6803F00073002BF1
:104B5C0009D1012373E03D4B1B6803F00203002BCA
:104B6C0001D101236BE0394B5B6823F003027B68B6
:104B7C005B68364913434B60FDF7D4FBF8600AE0E1
:104B8C00FDF7D0FB0246FB68D31A41F28832934200
:104B9C0001D9032353E02D4B5B6803F00C027B68B7
:104BAC005B689B009A42EBD1274B1B6803F0070311
:104BBC003A689A4210D2244B1B6823F00702224910
:104BCC003B6813430B60204B1B6803F007033A68E8
:104BDC009A4201D0012332E07B681B6803F0040386
:104BEC00002B08D0194B5B6823F4E0627B68DB6810
:104BFC00164913434B607B681B6803F00803002BBA
:104C0C0009D0124B5B6823F460527B681B69DB0094
:104C1C000E4913434B6000F021F802460B4B5B68C6
:104C2C001B0903F00F030A49CB5C22FA03F3094A70
:104C3C001360094B1B681846FDF732FB002318461E
:104C4C001037BD4680BD00BF00200240001002405E
:104C5C00D86F0008040000200800002080B487B042
:104C6C0000AF0023FB600023BB6000237B610023AB
:104C7C007B6000233B611E4B5B68FB60FB6803F0B1
:104C8C000C03042B02D0082B03D027E0194B3B61FB
:104C9C0027E0FB689B0C03F00F03174AD35C7B6087
:104CAC00FB6803F48033002B10D0114B5B685B0C5A
:104CBC0003F00103114AD35CBB607B680D4A03FB14
:104CCC0002F2BB68B2FBF3F37B6104E07B680C4A35
:104CDC0002FB03F37B617B693B6102E0054B3B61AB
:104CEC0000BF3B6918461C37BD4680BC704700BFEF
:104CFC000010024000127A00F06F000800700008EB
:104D0C0000093D0080B400AF024B1B681846BD463D
:104D1C0080BC70470400002080B500AFFFF7F2FFA5
:104D2C000246054B5B681B0A03F007030349CB5C87
:104D3C0022FA03F3184680BD00100240E86F000809
:104D4C0080B500AFFFF7DEFF0246054B5B68DB0A60
:104D5C0003F007030349CB5C22FA03F3184680BD2A
:104D6C0000100240E86F000880B485B000AF786096
:104D7C000A4B1B680A4AA2FB03235B0A7A6802FBF4
:104D8C0003F3FB6000BFFB685A1EFA60002BF9D1DD
:104D9C0000BF00BF1437BD4680BC70470400002024
:104DAC00D34D621080B586B000AF786000233B61B4
:104DBC000023FB607B681B6803F00103002B7DD094
:104DCC000023FB754F4BDB6903F08053002B0DD197
:104DDC004C4BDB694B4A43F08053D361494BDB6945
:104DEC0003F08053BB60BB680123FB75464B1B680B
:104DFC0003F48073002B18D1434B1B68424A43F4D5
:104E0C0080731360FDF78EFA386108E0FDF78AFABB
:104E1C0002463B69D31A642B01D903236DE03A4B4C
:104E2C001B6803F48073002BF0D0364B1B6A03F421
:104E3C004073FB60FB68002B2ED07B685B6803F42F
:104E4C004073FA689A4227D02E4B1B6A23F44073A6
:104E5C00FB602E4B01221A602C4B00221A60294A4F
:104E6C00FB681362FB6803F00103002B14D0FDF701
:104E7C0059FA38610AE0FDF755FA02463B69D31A34
:104E8C0041F28832934201D9032336E01D4B1B6A51
:104E9C0003F00203002BEED01A4B1B6A23F4407272
:104EAC007B685B68174913430B62FB7D012B05D1B3
:104EBC00144BDB69134A23F08053D3617B681B6866
:104ECC0003F00203002B08D00E4B5B6823F4404226
:104EDC007B689B680B4913434B607B681B6803F032
:104EEC001003002B08D0074B5B6823F480027B680F
:104EFC00DB68044913434B60002318461837BD4642
:104F0C0080BD00BF001002400070004040044242CF
:104F1C0080B588B000AF786000237B610023FB6113
:104F2C0000233B610023FB600023BB617B68102BDB
:104F3C000AD07B68102B00F28A807B68012B45D04D
:104F4C007B68022B75D082E0464B5B68FB60454B5F
:104F5C001B6803F08073002B7BD0FB689B0C03F069
:104F6C000F03414AD35C3B61FB6803F48033002B95
:104F7C0015D03C4B5B685B0C03F001033B4AD35CE4
:104F8C007B61FB6803F48033002B0DD0384A7B69BE
:104F9C00B2FBF3F23B6902FB03F3FB6104E03B69F8
:104FAC00344A02FB03F3FB612E4B5B6803F4800372
:104FBC00B3F5800F02D1FB69BB614AE0FB695B0072
:104FCC002D4AA2FB03235B08BB6142E0254B1B6A05
:104FDC00FB60FB6803F44073B3F5807F08D1FB687A
:104FEC0003F00203002B03D04FF40043BB611FE01E
:104FFC00FB6803F44073B3F5007F09D1194B5B6A6E
:10500C0003F00203002B03D049F64043BB610FE0D1
:10501C00FB6803F44073B3F5407F1CD1114B1B6844
:10502C0003F40033002B16D04FF22443BB6112E083
:10503C0011E0FFF785FE02460A4B5B689B0B03F001
:10504C00030301335B00B2FBF3F3BB6104E000BF6D
:10505C0002E000BF00E000BFBB6918462037BD4628
:10506C0080BD00BF001002400470000814700008DE
:10507C0000127A0000093D00ABAAAAAA80B582B042
:10508C0000AF78607B68002B01D1012341E07B6885
:10509C0093F83D30DBB2002B06D17B68002283F8FD
:1050AC003C207868FCF7C2FD7B68022283F83D2027
:1050BC007B681A687B6804331946104600F05CFA6A
:1050CC007B68012283F846207B68012283F83E200E
:1050DC007B68012283F83F207B68012283F8402003
:1050EC007B68012283F841207B68012283F84220EF
:1050FC007B68012283F843207B68012283F84420DB
:10510C007B68012283F845207B68012283F83D20CF
:10511C00002318460837BD4680BD000080B485B01A
:10512C0000AF78607B6893F83D30DBB2012B01D087
:10513C0001233AE07B68022283F83D207B681B68E0
:10514C00DA687B681B6842F00102DA607B681B68D6
:10515C00184A93420ED07B681B68B3F1804F09D07C
:10516C007B681B68144A934204D07B681B68134A03
:10517C00934211D17B681B689B6803F00703FB60AB
:10518C00FB68062B10D07B681B681A687B681B6851
:10519C0042F001021A6007E07B681B681A687B68A2
:1051AC001B6842F001021A60002318461437BD46F2
:1051BC0080BC7047002C01400004004000080040F7
:1051CC0080B584B000AF78607B681B68DB68FB60DF
:1051DC007B681B681B69BB60BB6803F00203002B78
:1051EC0020D0FB6803F00203002B1BD07B681B68EC
:1051FC006FF002021A617B6801221A777B681B68C8
:10520C009B6903F00303002B03D0786800F098F936
:10521C0005E0786800F08BF9786800F09AF97B6803
:10522C0000221A77BB6803F00403002B20D0FB6824
:10523C0003F00403002B1BD07B681B686FF0040287
:10524C001A617B6802221A777B681B689B6903F4DE
:10525C004073002B03D0786800F072F905E0786891
:10526C0000F065F9786800F074F97B6800221A7711
:10527C00BB6803F00803002B20D0FB6803F0080385
:10528C00002B1BD07B681B686FF008021A617B68CF
:10529C0004221A777B681B68DB6903F00303002B7D
:1052AC0003D0786800F04CF905E0786800F03FF91D
:1052BC00786800F04EF97B6800221A77BB6803F01F
:1052CC001003002B20D0FB6803F01003002B1BD025
:1052DC007B681B686FF010021A617B6808221A77D2
:1052EC007B681B68DB6903F44073002B03D0786880
:1052FC0000F026F905E0786800F019F9786800F0FC
:10530C0028F97B6800221A77BB6803F00103002B95
:10531C000CD0FB6803F00103002B07D07B681B68E3
:10532C006FF001021A617868FBF7FAFEBB6803F0B4
:10533C008003002B0CD0FB6803F08003002B07D0FC
:10534C007B681B686FF080021A61786800F07FFA46
:10535C00BB6803F04003002B0CD0FB6803F0400348
:10536C00002B07D07B681B686FF040021A617868CD
:10537C0000F0F8F8BB6803F02003002B0CD0FB689E
:10538C0003F02003002B07D07B681B686FF0200212
:10539C001A61786800F052FA00BF1037BD4680BD24
:1053AC0080B584B000AF786039600023FB737B68F4
:1053BC0093F83C30012B01D10223B4E07B6801222D
:1053CC0083F83C207B68022283F83D207B681B68B5
:1053DC009B68BB60BB6823F07703BB60BB6823F49E
:1053EC007F43BB607B681B68BA689A603B681B682C
:1053FC00B3F5005F3ED0B3F5005F00F28780B3F5E4
:10540C00805F00F08680B3F5805F7FD8702B1AD058
:10541C00702B7BD8602B50D0602B77D8502B3CD086
:10542C00502B73D8402B58D0402B6FD8302B64D0D6
:10543C00302B6BD8202B60D0202B67D8002B5CD066
:10544C00102B5AD062E07B6818683B6899683B68FF
:10545C005A683B68DB6800F074F97B681B689B68D2
:10546C00BB60BB6843F07703BB607B681B68BA68A2
:10547C009A604FE07B6818683B6899683B685A688B
:10548C003B68DB6800F05DF97B681B689A687B6899
:10549C001B6842F480429A603CE07B6818683B6869
:1054AC0059683B68DB681A4600F0D4F87B681B68C7
:1054BC005021184600F02BF92CE07B6818683B68EB
:1054CC0059683B68DB681A4600F0F2F87B681B6889
:1054DC006021184600F01BF91CE07B6818683B68DB
:1054EC0059683B68DB681A4600F0B4F87B681B68A7
:1054FC004021184600F00BF90CE07B681A683B68F9
:10550C001B681946104600F002F903E00123FB73F7
:10551C0000E000BF7B68012283F83D207B680022FD
:10552C0083F83C20FB7B18461037BD4680BD80B409
:10553C0083B000AF786000BF0C37BD4680BC7047AD
:10554C0080B483B000AF786000BF0C37BD4680BC20
:10555C00704780B483B000AF786000BF0C37BD4695
:10556C0080BC704780B483B000AF786000BF0C374C
:10557C00BD4680BC7047000080B485B000AF786039
:10558C0039607B681B68FB607B682F4A93420BD0A9
:10559C007B68B3F1804F07D07B682C4A934203D0D1
:1055AC007B682B4A934208D1FB6823F07003FB60A5
:1055BC003B685B68FA681343FB607B68224A934242
:1055CC000BD07B68B3F1804F07D07B681F4A9342A6
:1055DC0003D07B681E4A934208D1FB6823F44073C6
:1055EC00FB603B68DB68FA681343FB60FB6823F0E5
:1055FC0080023B685B691343FB607B68FA681A6046
:10560C003B689A687B68DA623B681A687B689A62C6
:10561C007B680D4A934203D13B681A697B681A6315
:10562C007B6801225A617B681B6903F00103002B24
:10563C0005D07B681B6923F001027B681A6100BFEF
:10564C001437BD4680BC7047002C0140000400405C
:10565C000008004080B487B000AFF860B9607A6091
:10566C00FB681B6A7B61FB681B6A23F00102FB6809
:10567C001A62FB689B693B613B6923F0F0033B6159
:10568C007B681B013A6913433B617B6923F00A0376
:10569C007B617A69BB6813437B61FB683A699A61E9
:1056AC00FB687A691A6200BF1C37BD4680BC704724
:1056BC0080B487B000AFF860B9607A60FB681B6A91
:1056CC007B61FB681B6A23F01002FB681A62FB68A3
:1056DC009B693B613B6923F470433B617B681B0313
:1056EC003A6913433B617B6923F0A0037B61BB6880
:1056FC001B017A6913437B61FB683A699A61FB6809
:10570C007A691A6200BF1C37BD4680BC704780B4F2
:10571C0085B000AF786039607B689B68FB60FB6884
:10572C0023F07003FB603A68FB68134343F00703F4
:10573C00FB607B68FA689A6000BF1437BD4680BC7A
:10574C00704780B487B000AFF860B9607A603B6096
:10575C00FB689B687B617B6923F47F437B613B68BF
:10576C001A027B681A43BB6813437A6913437B6143
:10577C00FB687A699A6000BF1C37BD4680BC7047D5
:10578C0080B485B000AF786039607B6893F83C30AA
:10579C00012B01D1022346E07B68012283F83C20D7
:1057AC007B68022283F83D207B681B685B68FB608A
:1057BC007B681B689B68BB60FB6823F07003FB6015
:1057CC003B681B68FA681343FB607B681B68FA68CC
:1057DC005A607B681B68164A93420ED07B681B6824
:1057EC00B3F1804F09D07B681B68124A934204D0F6
:1057FC007B681B68104A93420CD1BB6823F0800372
:10580C00BB603B685B68BA681343BB607B681B6812
:10581C00BA689A607B68012283F83D207B6800227D
:10582C0083F83C20002318461437BD4680BC7047D3
:10583C00002C0140000400400008004080B483B0FC
:10584C0000AF786000BF0C37BD4680BC704780B499
:10585C0083B000AF786000BF0C37BD4680BC70478A
:10586C0080B582B000AF78607B68002B01D101233A
:10587C0042E07B6893F84130DBB2002B06D17B68A9
:10588C00002283F840207868FCF7F4F97B68242226
:10589C0083F841207B681B68DA687B681B6822F4FC
:1058AC000052DA60786800F0B7FD7B681B681A69F3
:1058BC007B681B6822F490421A617B681B685A69EA
:1058CC007B681B6822F02A025A617B681B68DA68C5
:1058DC007B681B6842F40052DA607B6800225A64D1
:1058EC007B68202283F841207B68202283F84220A9
:1058FC007B6800225A63002318460837BD4680BDDA
:10590C0080B58AB002AFF860B9603B601346FB808B
:10591C0000237B61FB6893F84130DBB2202B75D1FF
:10592C00BB68002B02D0FB88002B01D101236EE059
:10593C00FB6800225A64FB68212283F84120FCF7A3
:10594C00F1FC7861FB68FA889A84FB68FA88DA843F
:10595C00FB689B68B3F5805F08D1FB681B69002B63
:10596C0004D10023FB61BB68BB6103E0BB68FB6136
:10597C000023BB612EE03B6800937B6900228021F1
:10598C00F86800F01CFB0346002B05D0FB682022B6
:10599C0083F8412003233AE0FB69002B0BD1BB6950
:1059AC001B881A46FB681B68C2F308025A60BB6965
:1059BC000233BB6107E0FB691A78FB681B685A600D
:1059CC00FB690133FB61FB68DB8C9BB2013B9AB238
:1059DC00FB68DA84FB68DB8C9BB2002BCBD13B6879
:1059EC0000937B6900224021F86800F0E8FA034636
:1059FC00002B05D0FB68202283F84120032306E00E
:105A0C00FB68202283F84120002300E00223184683
:105A1C002037BD4680BD80B584B000AFF860B9605A
:105A2C001346FB80FB6893F84230DBB2202B12D17B
:105A3C00BB68002B02D0FB88002B01D101230BE0AB
:105A4C00FB6800221A63FB881A46B968F86800F0F4
:105A5C000FFB034600E0022318461037BD4680BDFD
:105A6C0080B5BAB000AF78607B681B681B68C7F85C
:105A7C00E4307B681B68DB68C7F8E0307B681B6828
:105A8C005B69C7F8DC300023C7F8D8300023C7F8AF
:105A9C00D430D7F8E43003F00F03C7F8D830D7F878
:105AAC00D830002B0FD1D7F8E43003F02003002BB3
:105ABC0009D0D7F8E03003F02003002B03D078682E
:105ACC0000F0ECFB5BE2D7F8D830002B00F0DE8066
